{
  "_format": "hh-sol-artifact-1",
  "contractName": "Keyboards",
  "sourceName": "contracts/Keyboards.sol",
  "abi": [
    {
      "anonymous": false,
      "inputs": [
        {
          "components": [
            {
              "internalType": "enum Keyboards.KeyboardKind",
              "name": "kind",
              "type": "uint8"
            },
            {
              "internalType": "bool",
              "name": "isPBT",
              "type": "bool"
            },
            {
              "internalType": "string",
              "name": "filter",
              "type": "string"
            },
            {
              "internalType": "address",
              "name": "owner",
              "type": "address"
            }
          ],
          "indexed": false,
          "internalType": "struct Keyboards.Keyboard",
          "name": "keyboard",
          "type": "tuple"
        }
      ],
      "name": "KeyboardCreated",
      "type": "event"
    },
    {
      "anonymous": false,
      "inputs": [
        {
          "indexed": true,
          "internalType": "address",
          "name": "recipient",
          "type": "address"
        },
        {
          "indexed": true,
          "internalType": "address",
          "name": "sender",
          "type": "address"
        },
        {
          "indexed": false,
          "internalType": "uint256",
          "name": "amount",
          "type": "uint256"
        }
      ],
      "name": "TipSent",
      "type": "event"
    },
    {
      "inputs": [
        {
          "internalType": "enum Keyboards.KeyboardKind",
          "name": "_kind",
          "type": "uint8"
        },
        {
          "internalType": "bool",
          "name": "_isPBT",
          "type": "bool"
        },
        {
          "internalType": "string",
          "name": "_filter",
          "type": "string"
        }
      ],
      "name": "create",
      "outputs": [],
      "stateMutability": "nonpayable",
      "type": "function"
    },
    {
      "inputs": [
        {
          "internalType": "uint256",
          "name": "",
          "type": "uint256"
        }
      ],
      "name": "createdKeyboards",
      "outputs": [
        {
          "internalType": "enum Keyboards.KeyboardKind",
          "name": "kind",
          "type": "uint8"
        },
        {
          "internalType": "bool",
          "name": "isPBT",
          "type": "bool"
        },
        {
          "internalType": "string",
          "name": "filter",
          "type": "string"
        },
        {
          "internalType": "address",
          "name": "owner",
          "type": "address"
        }
      ],
      "stateMutability": "view",
      "type": "function"
    },
    {
      "inputs": [],
      "name": "getKeyboards",
      "outputs": [
        {
          "components": [
            {
              "internalType": "enum Keyboards.KeyboardKind",
              "name": "kind",
              "type": "uint8"
            },
            {
              "internalType": "bool",
              "name": "isPBT",
              "type": "bool"
            },
            {
              "internalType": "string",
              "name": "filter",
              "type": "string"
            },
            {
              "internalType": "address",
              "name": "owner",
              "type": "address"
            }
          ],
          "internalType": "struct Keyboards.Keyboard[]",
          "name": "",
          "type": "tuple[]"
        }
      ],
      "stateMutability": "view",
      "type": "function"
    },
    {
      "inputs": [
        {
          "internalType": "uint256",
          "name": "_index",
          "type": "uint256"
        }
      ],
      "name": "tip",
      "outputs": [],
      "stateMutability": "payable",
      "type": "function"
    }
  ],
  "bytecode": "0x608060405234801561001057600080fd5b50610f3d806100206000396000f3fe60806040526004361061003f5760003560e01c806352810aa114610044578063778bc8471461006f578063d80ad431146100af578063e8b69bc3146100d8575b600080fd5b34801561005057600080fd5b506100596100f4565b6040516100669190610c63565b60405180910390f35b34801561007b57600080fd5b5061009660048036038101906100919190610a10565b6102dd565b6040516100a69493929190610c85565b60405180910390f35b3480156100bb57600080fd5b506100d660048036038101906100d191906109a4565b6103df565b005b6100f260048036038101906100ed9190610a10565b6105de565b005b60606000805480602002602001604051908101604052809291908181526020016000905b828210156102d457838290600052602060002090600302016040518060800160405290816000820160009054906101000a900460ff166003811115610186577f4e487b7100000000000000000000000000000000000000000000000000000000600052602160045260246000fd5b60038111156101be577f4e487b7100000000000000000000000000000000000000000000000000000000600052602160045260246000fd5b81526020016000820160019054906101000a900460ff161515151581526020016001820180546101ed90610e14565b80601f016020809104026020016040519081016040528092919081815260200182805461021990610e14565b80156102665780601f1061023b57610100808354040283529160200191610266565b820191906000526020600020905b81548152906001019060200180831161024957829003601f168201915b505050505081526020016002820160009054906101000a900473ffffffffffffffffffffffffffffffffffffffff1673ffffffffffffffffffffffffffffffffffffffff1673ffffffffffffffffffffffffffffffffffffffff168152505081526020019060010190610118565b50505050905090565b600081815481106102ed57600080fd5b90600052602060002090600302016000915090508060000160009054906101000a900460ff16908060000160019054906101000a900460ff169080600101805461033690610e14565b80601f016020809104026020016040519081016040528092919081815260200182805461036290610e14565b80156103af5780601f10610384576101008083540402835291602001916103af565b820191906000526020600020905b81548152906001019060200180831161039257829003601f168201915b5050505050908060020160009054906101000a900473ffffffffffffffffffffffffffffffffffffffff16905084565b60006040518060800160405280866003811115610425577f4e487b7100000000000000000000000000000000000000000000000000000000600052602160045260246000fd5b8152602001851515815260200184848080601f016020809104026020016040519081016040528093929190818152602001838380828437600081840152601f19601f8201169050808301925050505050505081526020013373ffffffffffffffffffffffffffffffffffffffff168152509050600081908060018154018082558091505060019003906000526020600020906003020160009091909190915060008201518160000160006101000a81548160ff02191690836003811115610515577f4e487b7100000000000000000000000000000000000000000000000000000000600052602160045260246000fd5b021790555060208201518160000160016101000a81548160ff0219169083151502179055506040820151816001019080519060200190610556929190610878565b5060608201518160020160006101000a81548173ffffffffffffffffffffffffffffffffffffffff021916908373ffffffffffffffffffffffffffffffffffffffff16021790555050507f10a5f72cc15ad697630d0470547e58335ec196e4ce08851d095d19398b1cbdd7816040516105cf9190610cd1565b60405180910390a15050505050565b6000808281548110610619577f4e487b7100000000000000000000000000000000000000000000000000000000600052603260045260246000fd5b90600052602060002090600302016040518060800160405290816000820160009054906101000a900460ff16600381111561067d577f4e487b7100000000000000000000000000000000000000000000000000000000600052602160045260246000fd5b60038111156106b5577f4e487b7100000000000000000000000000000000000000000000000000000000600052602160045260246000fd5b81526020016000820160019054906101000a900460ff161515151581526020016001820180546106e490610e14565b80601f016020809104026020016040519081016040528092919081815260200182805461071090610e14565b801561075d5780601f106107325761010080835404028352916020019161075d565b820191906000526020600020905b81548152906001019060200180831161074057829003601f168201915b505050505081526020016002820160009054906101000a900473ffffffffffffffffffffffffffffffffffffffff1673ffffffffffffffffffffffffffffffffffffffff1673ffffffffffffffffffffffffffffffffffffffff168152505090506000816060015190508073ffffffffffffffffffffffffffffffffffffffff166108fc349081150290604051600060405180830381858888f1935050505015801561080d573d6000803e3d6000fd5b503373ffffffffffffffffffffffffffffffffffffffff168173ffffffffffffffffffffffffffffffffffffffff167f944676cc66b56faa2e31ce8f94f620789dda8488308d59491fabc492867d4cec3460405161086b9190610cf3565b60405180910390a3505050565b82805461088490610e14565b90600052602060002090601f0160209004810192826108a657600085556108ed565b82601f106108bf57805160ff19168380011785556108ed565b828001600101855582156108ed579182015b828111156108ec5782518255916020019190600101906108d1565b5b5090506108fa91906108fe565b5090565b5b808211156109175760008160009055506001016108ff565b5090565b60008135905061092a81610ec9565b92915050565b60008135905061093f81610ee0565b92915050565b60008083601f84011261095757600080fd5b8235905067ffffffffffffffff81111561097057600080fd5b60208301915083600182028301111561098857600080fd5b9250929050565b60008135905061099e81610ef0565b92915050565b600080600080606085870312156109ba57600080fd5b60006109c887828801610930565b94505060206109d98782880161091b565b935050604085013567ffffffffffffffff8111156109f657600080fd5b610a0287828801610945565b925092505092959194509250565b600060208284031215610a2257600080fd5b6000610a308482850161098f565b91505092915050565b6000610a458383610b8e565b905092915050565b610a5681610d74565b82525050565b610a6581610d74565b82525050565b6000610a7682610d1e565b610a808185610d41565b935083602082028501610a9285610d0e565b8060005b85811015610ace5784840389528151610aaf8582610a39565b9450610aba83610d34565b925060208a01995050600181019050610a96565b50829750879550505050505092915050565b610ae981610d86565b82525050565b610af881610d86565b82525050565b610b0781610dcf565b82525050565b610b1681610dcf565b82525050565b6000610b2782610d29565b610b318185610d52565b9350610b41818560208601610de1565b610b4a81610ea4565b840191505092915050565b6000610b6082610d29565b610b6a8185610d63565b9350610b7a818560208601610de1565b610b8381610ea4565b840191505092915050565b6000608083016000830151610ba66000860182610afe565b506020830151610bb96020860182610ae0565b5060408301518482036040860152610bd18282610b1c565b9150506060830151610be66060860182610a4d565b508091505092915050565b6000608083016000830151610c096000860182610afe565b506020830151610c1c6020860182610ae0565b5060408301518482036040860152610c348282610b1c565b9150506060830151610c496060860182610a4d565b508091505092915050565b610c5d81610dc5565b82525050565b60006020820190508181036000830152610c7d8184610a6b565b905092915050565b6000608082019050610c9a6000830187610b0d565b610ca76020830186610aef565b8181036040830152610cb98185610b55565b9050610cc86060830184610a5c565b95945050505050565b60006020820190508181036000830152610ceb8184610bf1565b905092915050565b6000602082019050610d086000830184610c54565b92915050565b6000819050602082019050919050565b600081519050919050565b600081519050919050565b6000602082019050919050565b600082825260208201905092915050565b600082825260208201905092915050565b600082825260208201905092915050565b6000610d7f82610da5565b9050919050565b60008115159050919050565b6000819050610da082610eb5565b919050565b600073ffffffffffffffffffffffffffffffffffffffff82169050919050565b6000819050919050565b6000610dda82610d92565b9050919050565b60005b83811015610dff578082015181840152602081019050610de4565b83811115610e0e576000848401525b50505050565b60006002820490506001821680610e2c57607f821691505b60208210811415610e4057610e3f610e75565b5b50919050565b7f4e487b7100000000000000000000000000000000000000000000000000000000600052602160045260246000fd5b7f4e487b7100000000000000000000000000000000000000000000000000000000600052602260045260246000fd5b6000601f19601f8301169050919050565b60048110610ec657610ec5610e46565b5b50565b610ed281610d86565b8114610edd57600080fd5b50565b60048110610eed57600080fd5b50565b610ef981610dc5565b8114610f0457600080fd5b5056fea26469706673582212206c72d817b6af680185c7ca633732de8464e9e8aaef1bcfa3ead627be90292a7764736f6c63430008040033",
  "linkReferences": {},
  "deployedLinkReferences": {}
}